{
  "contractName": "ArtGuard",
  "abi": [
    {
      "inputs": [],
      "stateMutability": "nonpayable",
      "type": "constructor"
    },
    {
      "inputs": [
        {
          "internalType": "address",
          "name": "",
          "type": "address"
        },
        {
          "internalType": "string",
          "name": "",
          "type": "string"
        }
      ],
      "name": "accessGranted",
      "outputs": [
        {
          "internalType": "bool",
          "name": "",
          "type": "bool"
        }
      ],
      "stateMutability": "view",
      "type": "function",
      "constant": true
    },
    {
      "inputs": [
        {
          "internalType": "address",
          "name": "",
          "type": "address"
        }
      ],
      "name": "earnings",
      "outputs": [
        {
          "internalType": "uint256",
          "name": "",
          "type": "uint256"
        }
      ],
      "stateMutability": "view",
      "type": "function",
      "constant": true
    },
    {
      "inputs": [],
      "name": "owner",
      "outputs": [
        {
          "internalType": "address",
          "name": "",
          "type": "address"
        }
      ],
      "stateMutability": "view",
      "type": "function",
      "constant": true
    },
    {
      "inputs": [
        {
          "internalType": "address",
          "name": "",
          "type": "address"
        },
        {
          "internalType": "uint256",
          "name": "",
          "type": "uint256"
        }
      ],
      "name": "userPurchasedFiles",
      "outputs": [
        {
          "internalType": "string",
          "name": "",
          "type": "string"
        }
      ],
      "stateMutability": "view",
      "type": "function",
      "constant": true
    },
    {
      "inputs": [
        {
          "internalType": "address",
          "name": "",
          "type": "address"
        },
        {
          "internalType": "uint256",
          "name": "",
          "type": "uint256"
        }
      ],
      "name": "userUploadedFiles",
      "outputs": [
        {
          "internalType": "string",
          "name": "",
          "type": "string"
        }
      ],
      "stateMutability": "view",
      "type": "function",
      "constant": true
    },
    {
      "stateMutability": "payable",
      "type": "receive",
      "payable": true
    },
    {
      "inputs": [],
      "name": "getBalance",
      "outputs": [
        {
          "internalType": "uint256",
          "name": "",
          "type": "uint256"
        }
      ],
      "stateMutability": "view",
      "type": "function",
      "constant": true
    },
    {
      "inputs": [],
      "name": "withdraw",
      "outputs": [],
      "stateMutability": "nonpayable",
      "type": "function"
    },
    {
      "inputs": [
        {
          "internalType": "string",
          "name": "title",
          "type": "string"
        },
        {
          "internalType": "string",
          "name": "ipfsHash",
          "type": "string"
        },
        {
          "internalType": "uint256",
          "name": "price",
          "type": "uint256"
        }
      ],
      "name": "setFile",
      "outputs": [],
      "stateMutability": "nonpayable",
      "type": "function"
    },
    {
      "inputs": [
        {
          "internalType": "string",
          "name": "title",
          "type": "string"
        }
      ],
      "name": "isTitleTaken",
      "outputs": [
        {
          "internalType": "bool",
          "name": "",
          "type": "bool"
        }
      ],
      "stateMutability": "view",
      "type": "function",
      "constant": true
    },
    {
      "inputs": [
        {
          "internalType": "string",
          "name": "title",
          "type": "string"
        }
      ],
      "name": "purchaseFile",
      "outputs": [],
      "stateMutability": "payable",
      "type": "function",
      "payable": true
    },
    {
      "inputs": [
        {
          "internalType": "string",
          "name": "title",
          "type": "string"
        }
      ],
      "name": "getFilePrice",
      "outputs": [
        {
          "internalType": "uint256",
          "name": "",
          "type": "uint256"
        }
      ],
      "stateMutability": "view",
      "type": "function",
      "constant": true
    },
    {
      "inputs": [],
      "name": "getUserUploadedFiles",
      "outputs": [
        {
          "internalType": "string[]",
          "name": "",
          "type": "string[]"
        },
        {
          "internalType": "uint256[]",
          "name": "",
          "type": "uint256[]"
        }
      ],
      "stateMutability": "view",
      "type": "function",
      "constant": true
    },
    {
      "inputs": [],
      "name": "getUserPurchasedFiles",
      "outputs": [
        {
          "internalType": "string[]",
          "name": "",
          "type": "string[]"
        }
      ],
      "stateMutability": "view",
      "type": "function",
      "constant": true
    },
    {
      "inputs": [
        {
          "internalType": "string",
          "name": "title",
          "type": "string"
        }
      ],
      "name": "getFileIpfsHash",
      "outputs": [
        {
          "internalType": "string",
          "name": "",
          "type": "string"
        }
      ],
      "stateMutability": "view",
      "type": "function",
      "constant": true
    },
    {
      "inputs": [
        {
          "internalType": "string",
          "name": "title",
          "type": "string"
        }
      ],
      "name": "hasAccess",
      "outputs": [
        {
          "internalType": "bool",
          "name": "",
          "type": "bool"
        }
      ],
      "stateMutability": "view",
      "type": "function",
      "constant": true
    }
  ],
  "bytecode": "0x608060405234801561001057600080fd5b50336000806101000a81548173ffffffffffffffffffffffffffffffffffffffff021916908373ffffffffffffffffffffffffffffffffffffffff160217905550611aed806100606000396000f3fe6080604052600436106100ec5760003560e01c806363959c8c1161008a5780638da5cb5b116100595780638da5cb5b146103075780638e296af314610332578063bf5c6ca51461036f578063cee37d2d146103ac576100f3565b806363959c8c1461024a5780637609b8e41461027657806377c801a7146102b35780638ac3b536146102de576100f3565b80633ccfd60b116100c65780633ccfd60b1461017c57806347cd544b14610193578063543fd313146101d05780635585d1b91461020d576100f3565b80631158d320146100f857806312065fe0146101145780633474b2721461013f576100f3565b366100f357005b600080fd5b610112600480360381019061010d919061129a565b6103e9565b005b34801561012057600080fd5b506101296105d9565b60405161013691906116c9565b60405180910390f35b34801561014b57600080fd5b506101666004803603810190610161919061120a565b6105e1565b604051610173919061162c565b60405180910390f35b34801561018857600080fd5b50610191610626565b005b34801561019f57600080fd5b506101ba60048036038101906101b5919061129a565b61073c565b6040516101c7919061162c565b60405180910390f35b3480156101dc57600080fd5b506101f760048036038101906101f291906111e1565b6107b6565b60405161020491906116c9565b60405180910390f35b34801561021957600080fd5b50610234600480360381019061022f919061125e565b6107ce565b6040516102419190611647565b60405180910390f35b34801561025657600080fd5b5061025f610887565b60405161026d9291906115f5565b60405180910390f35b34801561028257600080fd5b5061029d6004803603810190610298919061129a565b610ae4565b6040516102aa91906116c9565b60405180910390f35b3480156102bf57600080fd5b506102c8610b0f565b6040516102d591906115d3565b60405180910390f35b3480156102ea57600080fd5b50610305600480360381019061030091906112db565b610c25565b005b34801561031357600080fd5b5061031c610eaa565b60405161032991906115b8565b60405180910390f35b34801561033e57600080fd5b506103596004803603810190610354919061125e565b610ece565b6040516103669190611647565b60405180910390f35b34801561037b57600080fd5b506103966004803603810190610391919061129a565b610f87565b6040516103a3919061162c565b60405180910390f35b3480156103b857600080fd5b506103d360048036038101906103ce919061129a565b610ff9565b6040516103e09190611647565b60405180910390f35b60006001826040516103fb91906115a1565b908152602001604051809103902090508060010154341015610452576040517f08c379a000000000000000000000000000000000000000000000000000000000815260040161044990611689565b60405180910390fd5b600181600201600082825461046791906117e4565b92505081905550600460003373ffffffffffffffffffffffffffffffffffffffff1673ffffffffffffffffffffffffffffffffffffffff168152602001908152602001600020829080600181540180825580915050600190039060005260206000200160009091909190915090805190602001906104e69291906110ac565b506001600560003373ffffffffffffffffffffffffffffffffffffffff1673ffffffffffffffffffffffffffffffffffffffff1681526020019081526020016000208360405161053691906115a1565b908152602001604051809103902060006101000a81548160ff02191690831515021790555034600260008360030160009054906101000a900473ffffffffffffffffffffffffffffffffffffffff1673ffffffffffffffffffffffffffffffffffffffff1673ffffffffffffffffffffffffffffffffffffffff16815260200190815260200160002060008282546105ce91906117e4565b925050819055505050565b600047905090565b6005602052816000526040600020818051602081018201805184825260208301602085012081835280955050505050506000915091509054906101000a900460ff1681565b6000600260003373ffffffffffffffffffffffffffffffffffffffff1673ffffffffffffffffffffffffffffffffffffffff168152602001908152602001600020549050600081116106ad576040517f08c379a00000000000000000000000000000000000000000000000000000000081526004016106a4906116a9565b60405180910390fd5b6000600260003373ffffffffffffffffffffffffffffffffffffffff1673ffffffffffffffffffffffffffffffffffffffff168152602001908152602001600020819055503373ffffffffffffffffffffffffffffffffffffffff166108fc829081150290604051600060405180830381858888f19350505050158015610738573d6000803e3d6000fd5b5050565b60008073ffffffffffffffffffffffffffffffffffffffff1660018360405161076591906115a1565b908152602001604051809103902060030160009054906101000a900473ffffffffffffffffffffffffffffffffffffffff1673ffffffffffffffffffffffffffffffffffffffff1614159050919050565b60026020528060005260406000206000915090505481565b600460205281600052604060002081815481106107ea57600080fd5b90600052602060002001600091509150508054610806906118c4565b80601f0160208091040260200160405190810160405280929190818152602001828054610832906118c4565b801561087f5780601f106108545761010080835404028352916020019161087f565b820191906000526020600020905b81548152906001019060200180831161086257829003601f168201915b505050505081565b6060806000600360003373ffffffffffffffffffffffffffffffffffffffff1673ffffffffffffffffffffffffffffffffffffffff168152602001908152602001600020805480602002602001604051908101604052809291908181526020016000905b8282101561099757838290600052602060002001805461090a906118c4565b80601f0160208091040260200160405190810160405280929190818152602001828054610936906118c4565b80156109835780601f1061095857610100808354040283529160200191610983565b820191906000526020600020905b81548152906001019060200180831161096657829003601f168201915b5050505050815260200190600101906108eb565b5050505090506000815167ffffffffffffffff8111156109e0577f4e487b7100000000000000000000000000000000000000000000000000000000600052604160045260246000fd5b604051908082528060200260200182016040528015610a0e5781602001602082028036833780820191505090505b50905060005b8251811015610ad7576001838281518110610a58577f4e487b7100000000000000000000000000000000000000000000000000000000600052603260045260246000fd5b6020026020010151604051610a6d91906115a1565b908152602001604051809103902060020154828281518110610ab8577f4e487b7100000000000000000000000000000000000000000000000000000000600052603260045260246000fd5b6020026020010181815250508080610acf90611927565b915050610a14565b5081819350935050509091565b6000600182604051610af691906115a1565b9081526020016040518091039020600101549050919050565b6060600460003373ffffffffffffffffffffffffffffffffffffffff1673ffffffffffffffffffffffffffffffffffffffff168152602001908152602001600020805480602002602001604051908101604052809291908181526020016000905b82821015610c1c578382906000526020600020018054610b8f906118c4565b80601f0160208091040260200160405190810160405280929190818152602001828054610bbb906118c4565b8015610c085780601f10610bdd57610100808354040283529160200191610c08565b820191906000526020600020905b815481529060010190602001808311610beb57829003601f168201915b505050505081526020019060010190610b70565b50505050905090565b610c2e8361073c565b15610c6e576040517f08c379a0000000000000000000000000000000000000000000000000000000008152600401610c6590611669565b60405180910390fd5b6040518060800160405280838152602001828152602001600081526020013373ffffffffffffffffffffffffffffffffffffffff16815250600184604051610cb691906115a1565b90815260200160405180910390206000820151816000019080519060200190610ce09291906110ac565b50602082015181600101556040820151816002015560608201518160030160006101000a81548173ffffffffffffffffffffffffffffffffffffffff021916908373ffffffffffffffffffffffffffffffffffffffff160217905550905050600360003373ffffffffffffffffffffffffffffffffffffffff1673ffffffffffffffffffffffffffffffffffffffff16815260200190815260200160002083908060018154018082558091505060019003906000526020600020016000909190919091509080519060200190610db79291906110ac565b50600460003373ffffffffffffffffffffffffffffffffffffffff1673ffffffffffffffffffffffffffffffffffffffff16815260200190815260200160002083908060018154018082558091505060019003906000526020600020016000909190919091509080519060200190610e309291906110ac565b506001600560003373ffffffffffffffffffffffffffffffffffffffff1673ffffffffffffffffffffffffffffffffffffffff16815260200190815260200160002084604051610e8091906115a1565b908152602001604051809103902060006101000a81548160ff021916908315150217905550505050565b60008054906101000a900473ffffffffffffffffffffffffffffffffffffffff1681565b60036020528160005260406000208181548110610eea57600080fd5b90600052602060002001600091509150508054610f06906118c4565b80601f0160208091040260200160405190810160405280929190818152602001828054610f32906118c4565b8015610f7f5780601f10610f5457610100808354040283529160200191610f7f565b820191906000526020600020905b815481529060010190602001808311610f6257829003601f168201915b505050505081565b6000600560003373ffffffffffffffffffffffffffffffffffffffff1673ffffffffffffffffffffffffffffffffffffffff16815260200190815260200160002082604051610fd691906115a1565b908152602001604051809103902060009054906101000a900460ff169050919050565b606060018260405161100b91906115a1565b90815260200160405180910390206000018054611027906118c4565b80601f0160208091040260200160405190810160405280929190818152602001828054611053906118c4565b80156110a05780601f10611075576101008083540402835291602001916110a0565b820191906000526020600020905b81548152906001019060200180831161108357829003601f168201915b50505050509050919050565b8280546110b8906118c4565b90600052602060002090601f0160209004810192826110da5760008555611121565b82601f106110f357805160ff1916838001178555611121565b82800160010185558215611121579182015b82811115611120578251825591602001919060010190611105565b5b50905061112e9190611132565b5090565b5b8082111561114b576000816000905550600101611133565b5090565b600061116261115d84611709565b6116e4565b90508281526020810184848401111561117a57600080fd5b611185848285611882565b509392505050565b60008135905061119c81611a89565b92915050565b600082601f8301126111b357600080fd5b81356111c384826020860161114f565b91505092915050565b6000813590506111db81611aa0565b92915050565b6000602082840312156111f357600080fd5b60006112018482850161118d565b91505092915050565b6000806040838503121561121d57600080fd5b600061122b8582860161118d565b925050602083013567ffffffffffffffff81111561124857600080fd5b611254858286016111a2565b9150509250929050565b6000806040838503121561127157600080fd5b600061127f8582860161118d565b9250506020611290858286016111cc565b9150509250929050565b6000602082840312156112ac57600080fd5b600082013567ffffffffffffffff8111156112c657600080fd5b6112d2848285016111a2565b91505092915050565b6000806000606084860312156112f057600080fd5b600084013567ffffffffffffffff81111561130a57600080fd5b611316868287016111a2565b935050602084013567ffffffffffffffff81111561133357600080fd5b61133f868287016111a2565b9250506040611350868287016111cc565b9150509250925092565b60006113668383611477565b905092915050565b600061137a8383611583565b60208301905092915050565b61138f8161183a565b82525050565b60006113a08261175a565b6113aa8185611795565b9350836020820285016113bc8561173a565b8060005b858110156113f857848403895281516113d9858261135a565b94506113e48361177b565b925060208a019950506001810190506113c0565b50829750879550505050505092915050565b600061141582611765565b61141f81856117a6565b935061142a8361174a565b8060005b8381101561145b578151611442888261136e565b975061144d83611788565b92505060018101905061142e565b5085935050505092915050565b6114718161184c565b82525050565b600061148282611770565b61148c81856117b7565b935061149c818560208601611891565b6114a5816119fd565b840191505092915050565b60006114bb82611770565b6114c581856117c8565b93506114d5818560208601611891565b6114de816119fd565b840191505092915050565b60006114f482611770565b6114fe81856117d9565b935061150e818560208601611891565b80840191505092915050565b60006115276019836117c8565b915061153282611a0e565b602082019050919050565b600061154a6014836117c8565b915061155582611a37565b602082019050919050565b600061156d6017836117c8565b915061157882611a60565b602082019050919050565b61158c81611878565b82525050565b61159b81611878565b82525050565b60006115ad82846114e9565b915081905092915050565b60006020820190506115cd6000830184611386565b92915050565b600060208201905081810360008301526115ed8184611395565b905092915050565b6000604082019050818103600083015261160f8185611395565b90508181036020830152611623818461140a565b90509392505050565b60006020820190506116416000830184611468565b92915050565b6000602082019050818103600083015261166181846114b0565b905092915050565b600060208201905081810360008301526116828161151a565b9050919050565b600060208201905081810360008301526116a28161153d565b9050919050565b600060208201905081810360008301526116c281611560565b9050919050565b60006020820190506116de6000830184611592565b92915050565b60006116ee6116ff565b90506116fa82826118f6565b919050565b6000604051905090565b600067ffffffffffffffff821115611724576117236119ce565b5b61172d826119fd565b9050602081019050919050565b6000819050602082019050919050565b6000819050602082019050919050565b600081519050919050565b600081519050919050565b600081519050919050565b6000602082019050919050565b6000602082019050919050565b600082825260208201905092915050565b600082825260208201905092915050565b600082825260208201905092915050565b600082825260208201905092915050565b600081905092915050565b60006117ef82611878565b91506117fa83611878565b9250827fffffffffffffffffffffffffffffffffffffffffffffffffffffffffffffffff0382111561182f5761182e611970565b5b828201905092915050565b600061184582611858565b9050919050565b60008115159050919050565b600073ffffffffffffffffffffffffffffffffffffffff82169050919050565b6000819050919050565b82818337600083830152505050565b60005b838110156118af578082015181840152602081019050611894565b838111156118be576000848401525b50505050565b600060028204905060018216806118dc57607f821691505b602082108114156118f0576118ef61199f565b5b50919050565b6118ff826119fd565b810181811067ffffffffffffffff8211171561191e5761191d6119ce565b5b80604052505050565b600061193282611878565b91507fffffffffffffffffffffffffffffffffffffffffffffffffffffffffffffffff82141561196557611964611970565b5b600182019050919050565b7f4e487b7100000000000000000000000000000000000000000000000000000000600052601160045260246000fd5b7f4e487b7100000000000000000000000000000000000000000000000000000000600052602260045260246000fd5b7f4e487b7100000000000000000000000000000000000000000000000000000000600052604160045260246000fd5b6000601f19601f8301169050919050565b7f54686973207469746c6520686173206265656e2074616b656e00000000000000600082015250565b7f496e73756666696369656e74207061796d656e74000000000000000000000000600082015250565b7f4e6f206561726e696e677320746f207769746864726177000000000000000000600082015250565b611a928161183a565b8114611a9d57600080fd5b50565b611aa981611878565b8114611ab457600080fd5b5056fea264697066735822122089252b12fb4045d0632829f3e3074749b5c40609f5f7e79030c5d6f90fbc8c0b64736f6c63430008040033",
  "immutableReferences": {},
  "source": "// SPDX-License-Identifier: MIT\r\npragma solidity >=0.4.22 <0.9.0;\r\n\r\n// contract ArtGuard is Owned {\r\n\r\ncontract ArtGuard {\r\n    address public owner;\r\n    // titile => File Object\r\n    mapping(string => File) private files;\r\n    // owner's address => earnings\r\n    mapping(address => uint) public earnings;\r\n    // msg.sender => his files' titles\r\n    mapping(address => string[]) public userUploadedFiles;\r\n    mapping(address => string[]) public userPurchasedFiles;\r\n    //  and title => if he can access\r\n    mapping(address => mapping(string => bool)) public accessGranted;\r\n\r\n    struct File {\r\n        string ipfsHash;\r\n        uint price;\r\n        uint purchaseCount;\r\n        address owner;\r\n    }\r\n\r\n    constructor() {\r\n        owner = msg.sender;\r\n    }\r\n\r\n    // used to receive money\r\n    receive() external payable {}\r\n\r\n    // \r\n    function getBalance() public view returns (uint) {\r\n        return address(this).balance;\r\n    }\r\n\r\n    function withdraw() public {\r\n        uint amount = earnings[msg.sender];\r\n        require(amount > 0, \"No earnings to withdraw\");\r\n        earnings[msg.sender] = 0;\r\n        payable(msg.sender).transfer(amount);\r\n    }\r\n\r\n    // IPFShash\r\n    function setFile(\r\n        string memory title,\r\n        string memory ipfsHash,\r\n        uint price\r\n    ) public {\r\n        require(!isTitleTaken(title), \"This title has been taken\");\r\n        files[title] = File(ipfsHash, price, 0, msg.sender);\r\n        userUploadedFiles[msg.sender].push(title);\r\n        // access\r\n        userPurchasedFiles[msg.sender].push(title);\r\n        accessGranted[msg.sender][title] = true;\r\n    }\r\n\r\n    // file\r\n    function isTitleTaken(string memory title) public view returns (bool) {\r\n        return files[title].owner != address(0);\r\n    }\r\n\r\n    // \r\n    function purchaseFile(string memory title) public payable {\r\n        File storage file = files[title];\r\n        // \r\n        require(msg.value >= file.price, \"Insufficient payment\");\r\n        file.purchaseCount += 1;\r\n        userPurchasedFiles[msg.sender].push(title);\r\n        accessGranted[msg.sender][title] = true;\r\n        earnings[file.owner] += msg.value;\r\n    }\r\n\r\n    // \r\n    function getFilePrice(string memory title) public view returns (uint) {\r\n        return files[title].price;\r\n    }\r\n\r\n    // title\r\n    function getUserUploadedFiles()\r\n        public\r\n        view\r\n        returns (string[] memory, uint[] memory)\r\n    {\r\n        string[] memory titles = userUploadedFiles[msg.sender];\r\n        uint[] memory purchaseCounts = new uint[](titles.length);\r\n        for (uint i = 0; i < titles.length; i++) {\r\n            purchaseCounts[i] = files[titles[i]].purchaseCount;\r\n        }\r\n        return (titles, purchaseCounts);\r\n    }\r\n\r\n    function getUserPurchasedFiles() public view returns (string[] memory) {\r\n        return userPurchasedFiles[msg.sender];\r\n    }\r\n\r\n    function getFileIpfsHash(\r\n        string memory title\r\n    ) public view returns (string memory) {\r\n        return files[title].ipfsHash;\r\n    }\r\n\r\n    function hasAccess(string memory title) public view returns (bool) {\r\n        return accessGranted[msg.sender][title];\r\n    }\r\n\r\n    //const instance = await ArtGuard.deployed()\r\n    //instance.addFunds({from: accounts[0], value: \"1000000000000000000\"})\r\n    //instance.withdraw(\"1000000000000000000\", {from: accounts[1]})\r\n    //instance.setFile('11', '123', '100000000000000000', {from: accounts[1]})\r\n}\r\n",
  "sourcePath": "D:\\112-1\\lab\\reactdapp\\contracts\\ArtguardContract.sol",
  "compiler": {
    "name": "solc",
    "version": "0.8.4+commit.c7e474f2.Emscripten.clang"
  },
  "schemaVersion": "3.4.16",
  "updatedAt": "2023-12-01T12:43:22.348Z",
  "networkType": "ethereum",
  "devdoc": {
    "kind": "dev",
    "methods": {},
    "version": 1
  },
  "userdoc": {
    "kind": "user",
    "methods": {},
    "version": 1
  }
}